:020000040000FA
:060000000201070222C507
:03001B000227D2E7
:03002B0002273B6E
:030033000227158C
:03003B0002275841
:030043000226C9C9
:0300530002233B4A
:03006B000226EF7B
:0300730002284D13
:1000830002211BE5C754F84401F5C779012200009A
:100093000080FB120086B900030200F1E4792178A5
:1000A30008B800028004F709D8FCE479297802B87B
:1000B30000028004F709D8FCE49002817883791860
:1000C3008002F0A3D8FCD9FA7A037B1A900137781F
:1000D3000D79048015E493A3AD82AE838A828B836A
:1000E300F0A3AA82AB838D828E83D8E9D9E7758288
:1000F300DE7583D8740312011975829175830074B8
:100103000012011975D00075813F751881751902A8
:10011300759F00020096C09FF59FE473D09F22D085
:1001230083D082C09FE493C0E0740193C0E0740263
:1001330093F59F220809534A4D2E4550470512084F
:10014300000800020A000201066A696172657169AA
:100153000000000000000000000000000000550443
:1001630000005B04FF0000B40000280028002830D2
:1001730075A000A000A000A00000080008E001F0A6
:10018300001000100010001000100010005000506C
:1001930000500010001000D0070000000000000F06
:1001A3000001000500307507001000010081FF0009
:1001B300000000FFFFFF8906A7068F06CB06FF029C
:1001C300020208025000A0000000E80302D68101E9
:1001D3000000C58102DA810100008E1A02F4810158
:1001E3000000EC0202DA810100008F1A02E28101B1
:1001F3000000020302DA81010000901A02E4810187
:100203000000040302DA81010000911A02E681086A
:100213000000050302DA81010000921A02E881015D
:100223000000931AFF0100FF2002D681010000CBDA
:100233008102DA81010000F71A02EA81000000005E
:100243000002DE81030000330317003D0D3D0D3D29
:100253000D3D0D3D0D3D0D3D0D3D0D3D0D3D0D3D4B
:100263000D3D0D3D0DE30FF50FDD0F0202020202FE
:1002730002020202010D000000100102D6810100FA
:1002830000CE8102DA810100003A1B02FC810100E9
:10029300006D0702DA810100003B1B02FA810100B5
:1002A30000178102DA810100003C1B02F881010082
:1002B30000098102DA810100003D1B02F681010081
:1002C30000958002DA810100003E1B02F2810100E9
:1002D30000838002DA810100003F1B02F0810100EC
:1002E30000B98002DA81010000401B02EE810100A7
:1002F30000A78002DA81010000411B02EC810100AA
:1003030000FB8002DA81010000421B020C82010023
:1003130000431B010577100A0A8111FFFFFF00014B
:100323003075030201060000000000000000000019
:1003330000000000000000000000000000000000BA
:100343000000FFFF0600800CE803010101000A43DF
:1003530068617261637465726973746963203100E3
:1003630002436861726163746572697374696320BF
:1003730032000843686172616374657269737469FA
:10038300632033001043686172616374657269733B
:100393007469632034000243686172616374657237
:1003A300697374696320350002D681010000D1812D
:1003B30002DA810100001D1C020282030000E2191F
:1003C30002DC810100001E1C02DA810100002F1CE7
:1003D300020482010000E31902DC81010000301CE9
:1003E30002DA81010000411C020682020000E419C6
:1003F30002DC81010000421C02DA81010000531C6F
:10040300020882000000F81902DE81030000F919D6
:1004130002DC81010000541C02DA81010000651C2A
:10042300020A82040000FB1902DC81010000661C41
:10043300D714CD9D1E9BDB15DF9F5FDAC3DCCB4B4F
:10044300120122A1EA0212012288EC021201229D6A
:10045300ED02120122A0ED02120122C4ED021201EB
:100463002281EE0212012262B10312012275B1034D
:10047300120122A6B103120122E0B10312012239B3
:10048300B20312012280B203120122C8B203120185
:1004930022F7B20312012226B3031201225DB30332
:1004A300120122A4B303120122BDB30312012212CB
:1004B300B4031201222BB40312012279B4031201F3
:1004C30022B3B403120122ECF601120122EFF70169
:1004D30012012228F8011201224BF8011201225DB8
:1004E300F8011201229BF80112012217F9011201EE
:1004F30022DFF90112012201FA0112012298FA0105
:10050300120122EAFA011201221BFB011201222825
:10051300FB0112012292FB01120122E9FB011201EC
:1005230022ECFB0112012225FC0112012228FC010D
:1005330012012232FC0112012286FC01120122C7A0
:10054300FC01120122FAFC0112012237FD01120102
:100553002239FE01120122DDFE0112012246FF01B2
:1005630012012284FF01120122B9A503120122E123
:10057300A5031201220EA60312012246A6031201AD
:1005830022A4A603120122F0A60312012257A703F5
:1005930012012297A703120122D4A70312012202F8
:1005A300A803120122ACA803120122B6A803120168
:1005B30022C3A803120122F6A80312012202A903EF
:1005C3001201221AA90312012224A9031201224EA5
:1005D300D4031201225CD40312012274D403120146
:1005E300228BD403120122C5A6011201226FA70197
:1005F30012012282A801120122FEA8011201221C6B
:10060300AA0112012258AA01120122F3AA0112011E
:1006130022D7AB01120122A3AC0112012231AE0198
:10062300120122A2AE011201225CAF011201224E7D
:10063300B0011201228EB00112012242B101120156
:100643002274B1011201226AB301120122ACB30177
:10065300120122CAB30112012230B401120122FF96
:10066300B401120122C3B501120122E2B701120142
:1006730022EB7800120122D57900120122807A0040
:10068300120122D17A00120122817B00120122F28F
:100693007B00120122D77C001201220B7D00120184
:1006A30022047E00120122417E001201221D7F00DE
:1006B3001201225C7F00120122787F00120122F7CF
:1006C300C5031201227BC603120122A6C60312012F
:1006D30022C0C703120122B2A903120122C8A9032F
:1006E300120122E6A903120122F7AA031201220131
:1006F300AB031201222CAC0312012223AD0312011E
:100703002290AD031201227BE402120122B1E50221
:100713001201222BE6021201225BE6021201226E73
:10072300E602120122C5E602120122DAE8021201F0
:10073300220F82011201229B8201120122FF8301F7
:100743001201220B8401120122468401120122B5F7
:100753008401120122BE8501120122C78601120102
:10076300228E8701120122EB8801120122098901DD
:10077300120122268901120122D38901120122507A
:100783008A01120122788A01120122428D0112018B
:1007930022478D01120122608F01120122AE8F01C7
:1007A3001201221E90011201225C900112012238D3
:1007B3009101120122F891011201224492011201C6
:1007C300224792011201228B9201120122D392013C
:1007D30012012212930112012234930112012268A1
:1007E3009301120122CB93011201228E8503120180
:1007F300229C8503120122EF85031201220E860338
:100803001201225386031201229787031201223217
:100813008803120122768803120122A088031201A1
:10082300220F8903120122558903120122CC890365
:100833001201227D8A03120122DF28001201228085
:100843002900120122DC2900120122992A00120137
:1008530022B52B00120122E72B00120122162C00D5
:10086300120122C32D001201223A3000120122AAE2
:1008730032001201229C330012012295340012012E
:10088300229C3600120122903900120122BF3A0045
:10089300120122C33C00120122D33D001201226245
:1008A3003F00120122534000120122A14000120115
:1008B300221041001201223441001201228541001D
:1008C3001201222646001201222747001201228824
:1008D3004700120122B34700120122794800120196
:1008E300227FA10312012289A103120122CEA103B7
:1008F300120122E2A10312012272A203120122AB0E
:10090300A203120122E6A2031201220FA303120182
:100913002263A30312012278A3031201229AA303E1
:10092300120122AFA303120122C3A303120122D88F
:10093300A30312012212A4031201223EA4031201F3
:1009430022CEA403120122F9A4031201223CA5031F
:1009530012012266A50312012291A5031201228B23
:10096300D1031201221CA402120122FFA4021201CC
:10097300227AA502120122B5A50212012206A702BC
:1009830012012294A70212012226AA02120122D8DE
:10099300AA02120122E4AB0212012257AD02120194
:1009A30022B0AD021201222F9D03120122729D0378
:1009B300120122F69D03120122CDA003120122850A
:1009C300C30312012237C40312012233C5031201E8
:1009D3002272C503120122CCC503120122E5C90309
:1009E30012012248CA03120122E5CA031201221A84
:1009F300CB031201224ACB0312012285CB0312013E
:100A030022A5CB031201225B8F03120122E78F037E
:100A1300120122A69003120122BE9103120122D8D1
:100A23009303120122888D02120122AD8D0212015D
:100A3300227A8E021201224E8F02120122BB8F02F2
:100A4300120122FB8F02120122979002120122CB84
:100A53009102120122A692021201220593021201AF
:100A630022919302120122FF93021201228B94021C
:100A7300120122D19402120122439502120122D5BE
:100A83009502120122769602120122969602120113
:100A930022DE9602120122279702120122439702B5
:100AA300120122699702120122E39702120122F135
:100AB3009702120122809802120122E99802120180
:100AC300220F9403120122949403120122D6940359
:100AD300120122BA95031201222796031201226BF7
:100AE3009603120122AF9603120122DC9603120130
:100AF300220497031201223C97031201227A9703DF
:100B0300120122A197031201221B980312012265ED
:100B13009803120122F0C8011201228FCA011201A7
:100B230022C7CC011201221BCD0112012246CD01A5
:100B330012012222CE0112012252CE011201228180
:100B4300CE0112012294CE01120122D5CE0112014F
:100B53002202CF0112012250CF011201228CCF01B8
:100B6300120122D1CF011201221ED00112012298BB
:100B7300D001120122D9D201120122C3D4011201E0
:100B830022FFD4011201228ED601120122D3D601F3
:100B930012012246D7011201229BD701120122FF23
:100BA300D7011201222AD80112012249D9011201C7
:100BB300225AD90112012203C2021201227CC2026B
:100BC30012012236C80212012241C902120122EA8D
:100BD300CA0212012278CB02120122D86400120148
:100BE30022596500120122866500120122CF650099
:100BF300120122D06600120122296700120122A5E8
:100C030068001201222769001201224269001201C1
:100C130022B36900120122706A00120122336B00B1
:100C2300120122C16B00120122786C001201228B87
:100C33006C00120122246D00120122BB6D0012010F
:100C430022E26D001201224B6E00120122956E000A
:100C5300120122E36E00120122886F001201222684
:100C63007000120122B370001201222471001201DC
:100C7300226B7100120122C37100120122F571006F
:100C8300120122AF7200120122B67300120122FF79
:100C930073001201221C74001201223B7400120122
:100CA300226E75001201222576001201224A760077
:100CB3001201225F7600120122CF76001201221068
:100CC3007700120122347800120122B57800120154
:100CD3002243B8021201228EB8021201229AB802EC
:100CE3001201226EB90212012285B902120122C237
:100CF300B902120122F3B9021201222BBA02120124
:100D03002281BA0212012297BA02120122D3BA0235
:100D1300120122E6BA021201220DBB021201224184
:100D2300BB0212012267BC02120122B1BD021201F1
:100D330022ADBE02120122CABF02120122CD280037
:100D43001201227DD901120122B8D9011201220A0E
:100D5300DD0112012266DE0112012225DF011201EB
:100D6300228CE20112012276E301120122C2E30185
:100D7300120122DCE30112012219E40112012224EF
:100D8300E40112012263E4011201226CE401120165
:100D93002216E501120122EDE50112012241E601CD
:100DA3001201229EE60112012210E701120122A381
:100DB30094011201220298011201220898011201E2
:100DC30022399F0112012240A3011201221BB50304
:100DD300120122F8B5031201223CB6031201227656
:100DE300B6031201220EB7031201227DB7031201CB
:100DF3002286B70312012292B703120122ACB70372
:100E0300120122D6B70312012206B803120122BA35
:100E1300FB02120122C7FB02120122E1FB021201B3
:100E23002214FC0212012252FC02120122B7FC021C
:100E3300120122CCFC02120122D7FC02120122E48D
:100E4300FC02120122FBFC0212012209FD02120123
:100E53002214FD0212012220FD021201222FFD02A3
:100E63001201223AFD021201225DFD02120122014A
:100E7300FE0212012211FE021201222BFE021201B6
:100E83002248FE0212012263FE0212012288FE02A0
:100E930012012293FE02120122A8FE02120122BCB9
:100EA300FE021201221DFF0212012223FF02120180
:100EB3002229FF021201222FFF0212012247FF0201
:100EC3001201227AFF021201220580021201229CE2
:100ED30080021201223481021201222482021201B1
:100EE300225B82021201226E8202120122DC820242
:100EF3001201227784021201229E840212012240EF
:100F030085021201227585021201228685021201D1
:100F130022FF850212012220860212012238860254
:100F2300120122908702120122998902120122E9F9
:100F33008B02120122EC8C021201223B8D02120160
:100F4300225FE8011201225CE90112012247EA0152
:100F530012012251EA0112012273EA011201227FD6
:100F6300EA01120122D1EB0112012200EC0112016C
:100F73002230ED0112012272ED011201229EEE01D7
:100F830012012274EF01120122C6EF011201222580
:100F9300F0011201225CF00112012297F00112010B
:100FA3002232F4011201224BF401120122CDF40189
:100FB300120122DBF40112012230F5011201223E5B
:100FC300F501120122ABF5011201221DF6011201F6
:100FD3002263F6011201220C99021201222E9902B8
:100FE300120122189B02120122BD9E02120122004D
:100FF300A002120122DAA002120122B3CB031201D2
:1010030022D8CB0312012249CC03120122D0D402ED
:10101300120122D9D402120122E2D40212012213B4
:10102300D60212012232D80212012268D80212011A
:1010330022A2D802120122D8D80212012212D90206
:1010430012012246D90212012272D902120122BBD5
:10105300D902120122F5D9021201223DDA0212014C
:101063002293DA02120122C8DA0212012223DB02DE
:101073001201225DDB02120122AEDB02120122E425
:10108300DB021201221EDC021201224CDC021201DD
:10109300226FDC02120122CFD503120122FBD503FA
:1010A30012012256D60312012260D60312012270C6
:1010B300D6031201228F8A03120122B68A03120178
:1010C3002259D803120122E548001201227B4A006B
:1010D300120122F84A00120122A44B0012012247F6
:1010E3004C00120122DF4C00120122775100120141
:1010F300220B5200120122475300120122B1530066
:101103001201226554001201221B570012012255BD
:101113005700120122BF57001201221D580012016D
:10112300227B5800120122D85800120122C759000D
:101133001201220D5A00120122525A001201227585
:101143005A00120122D75B00120122F25B00120146
:10115300227A5D00120122B95D00120122F95D00BD
:101163001201224C5E001201226D5E00120122ABBD
:101173005E00120122D160001201221261001201ED
:1011830022A961001201225C6200120122F76200AF
:10119300120122636300120122A464001201227D62
:1011A300F00212012223F10212012268F20212015B
:1011B30022F1F202120122DEF3021201221DF402D5
:1011C30012012287F402120122F5F4021201221BFA
:1011D300D5031201222CD5031201221ABE031201D8
:1011E30022E5C003120122D97F001201229FD203FC
:1011F300120122AFD203120122CCD2031201226CBC
:10120300D30312012234B803120122DAB803120104
:10121300221CBB0312012269CD0312012299CD03C3
:1012230012012209CE0312012265CE03120122E02C
:10123300CE03120122A59803120122C798031201BB
:10124300225D99031201225B9A03120122BB9C03C4
:10125300120122A2CB021201229FCD0212012225EA
:10126300CE0212012233CF02120122F7CF02120162
:101273002274D002120122E6D002120122E9D00226
:1012830012012201D10212012283D102120122E9A9
:10129300D102120122B5D20212012290D30212010D
:1012A30022DCD302120122EDD30212012217D4024F
:1012B30012012253D4021201228FD402120122A05E
:1012C300D402120122C2D40212012223D703120133
:1012D300229CD703120122BBD7031201225AD00347
:1012E3001201228BD003120122B5D0031201221363
:1012F300D103120122FDDC0212012212DD021201CE
:10130300226EDD02120122D9DD0212012221DE0248
:1013130012012293DE02120122BDDE02120122CB50
:10132300DE021201222DDF021201226BDF02120103
:101333002286DF0212012221E002120122C8E0020A
:1013430012012249E10212012280E1021201220963
:10135300E2021201225EE202120122BBE202120148
:1013630022CDE202120122F3E202120122FCE20286
:1013730012012247E4021201227AD603120122EF5C
:10138300C70312012254C8031201220FC903120119
:10139300228DC9031201229AAD03120122CDAD039E
:1013A300120122FFAE0312012243AF031201221BDB
:1013B300B0031201221DCF03120122FECF0312013B
:1013C30022F3C00312012238C1031201227CC1039C
:1013D30012012243C303120122CBD703120122E6D7
:1013E300D703120122F6D70312012259AE021201CA
:1013F3002235AF0212012278AF02120122B2AF02EC
:1014030012012220B0021201227AB002120122EA52
:10141300B002120122BBB102120122ABB2021201CD
:101423002222B302120122BFB4021201224CB502DE
:10143300120122C0B5021201223EB6021201225548
:10144300B6021201227CB702120122D7B70212019F
:10145300221EF6021201223BF6021201223DF7027E
:1014630012012289F702120122A9F702120122FABC
:10147300F70212012265F802120122A9F8021201F1
:10148300220BF902120122A9FB02120122EFB7017A
:101493001201221EBD0112012247BD011201227059
:1014A300BD011201221EBE0112012207C001120159
:1014B3002252C1011201226BC101120122A2C601F3
:1014C300120122DBC6011201221FC70112012230C1
:1014D300C80112012237BB031201227FBB03120191
:1014E3002286BC0312012289BC031201223ABD03E6
:1014F30012012241BD03120122C1BD03120122E3E5
:10150300BD03120122008003120122908003120105
:1015130022AD8003120122C681031201226B8203D2
:101523001201229683031201224D85031201227AAE
:10153300D30312012295D303120122AAFF01120140
:10154300225BD90312012287D903E066701008A336
:10155300E066700A08A3E066700408A3E06622C38D
:10156300E7960809E7960809E7960809E79622C36C
:10157300E09608A3E09608A3E09608A3E09622C0AD
:1015830008C3E096F50808A3E096420808A3E0968E
:10159300420808A3E09645087001D3D00822080842
:1015A30008EAC0E0EBC0E086F0E7A4FA180986F089
:1015B300E7A42AFA180986F0E7A42AFA180986F09C
:1015C300E7A42AFA1986F0E7A4FBE5F02AFA19083A
:1015D30086F0E7A42BFBE5F03AFA190886F0E7A4B6
:1015E3002BFBE5F03AFA18180986F0E7A4C5F02BAF
:1015F300FBE43AFA1908E7C5F0C6A426F6E5F03B82
:10160300FBE43AFA1886F0E7A4F6E5F00826F6E4D8
:101613003B08F6E43A08F6D0E0FBD0E0FA22E4CF48
:10162300C0E0E4CEC0E0E4CDC0E0E4CCC0E075F0BF
:1016330020E626F608E633F608E633F608E633F640
:10164300181818EC33FCED33FDEE33FEEF33FFC314
:10165300EC9709ED9709EE9709EF97191919400FC0
:10166300FFEC97FC09ED97FD09EE97FE191906D5D6
:10167300F0BFECF709EDF709EEF709EFF7191919C0
:10168300D0E0FCD0E0FDD0E0FED0E0FF2260160801
:101693000808C6C313C618C613C618C613C618C689
:1016A30013C6D5E0EA227009080808226016181844
:1016B30018C6C333C608C633C608C633C608C633FE
:1016C300C6D5E0EA22E627F60809E637F60809E672
:1016D30037F60809E637F622E026F608A3E036F6E1
:1016E30008A3E036F608A3E036F622E026F008A3C6
:1016F300E036F008A3E036F008A3E036F022C3E6B4
:1017030097F60809E697F60809E697F60809E697B3
:10171300F622C3E096F008A3E096F008A3E096F063
:1017230008A3E096F022E056F608A3E056F608A3D5
:10173300E056F608A3E056F622E056F008A3E0567A
:10174300F008A3E056F008A3E056F022E0F608A361
:10175300E0F608A3E0F608A3E0F622E6F008A3E625
:10176300F008A3E6F008A3E6F022E0FAA3E0FBA367
:10177300E0FCA3E0FD22E0F8A3E0F9A3E0FAA3E094
:10178300FB22E8F0A3E9F0A3EAF0A3EBF022CAC03E
:10179300E0E6F0A308DAFAD0E0FA22CAC0E0E0A358
:1017A300C582CCC582C583CDC583F0A3C582CCC514
:1017B30082C583CDC583DAE6D0E0CA22C3E498F8B4
:1017C300E499F91218008026C3E49AFAE49BFBE932
:1017D30020E7E9121800E498F8E499F922C3E498A1
:1017E300F8E499F9121800E498F8E499F9C3E49A33
:1017F300FAE49BFB22EB20E7CFE920E7E0B90010F6
:10180300BB0008E88AF084F8AAF022E4FBC8FA22B5
:10181300EB70227B10C833C8C933C9335007C39A4E
:10182300C3DBF280069A50012ADBEAC833F4C8C945
:1018330033F4C9FA2275F008E4C833C8C933C9338D
:10184300C99AC99B5004C92AC93BD5F0ECFBC833DC
:10185300F4C8E4C9FA22600D08C6A2E713C618C685
:1018630013C6D5E0F322600C08C6C313C618C6130B
:10187300C6D5E0F422700422600D18C6C333C6082F
:10188300C633C6D5E0F41822251810AF08F5184062
:101893000C15198008F51840021519D2AF2200C0A3
:1018A300D0251810AF08F518500C05198008F51845
:1018B30050020519D2AFD0D0222518F58210AF08F7
:1018C300F518400C15198008F51840021519D2AF08
:1018D300851983222518F582E43519F58322251805
:1018E300F8E43519F9222518FAE43519FB222518ED
:1018F300FCE43519FD22E4732518C582C0E0E5191F
:1019030034FFC583C0E0E518C3958224F810AF08FF
:101913008583198582188008858319858218D2AF3B
:10192300CEF0A3E520F0A37808E608F0A3DEFAEFF3
:10193300F0A3E58124FAF8E608F0A3E608F0A3E6AD
:1019430008F0A30808E608F0A3E608F0A31581153C
:1019530081D0E0FED0E0F8158115811581E8C0E063
:10196300EEC0E0222518C582C0E0E51934FFC58327
:10197300C0E0E518C3958224F910AF088583198563
:1019830082188008858319858218D2AFCEF0A3E52B
:1019930020F0A37808E608F0A3DEFAEFF0A3E581D0
:1019A30024FBF8E608F0A3E608F0A30808E608F02D
:1019B300A3E608F0A315811581D0E0FED0E0F81569
:1019C300811581E8C0E0EEC0E02285198385188285
:1019D300E0A3FEE0A3F5207808E0A3F608DFFAE031
:1019E300A3FFE0A3C0E0E0A3C0E0E0A3C0E0E0A366
:1019F300C0E0E0A3C0E010AF08858218858319809A
:101A030008858218858319D2AFD083D08202011F43
:101A1300851983851882E0A3FEE0A3F5207808E00A
:101A2300A3F608DFFAE0A3FFE0A3C0E0E0A3C0E071
:101A3300E0A3C0E0E0A3C0E010AF0885821885836F
:101A4300198008858218858319D2AFD083D082226A
:101A5300C0D02518C582C0E0E51934FFC583C0E0B6
:101A6300E518C3958224F310AF088583198582187E
:101A73008008858319858218D2AFC8F0A3E9F0A343
:101A8300EAF0A3EBF0A37908E709F0A3D8FAECF0A6
:101A9300A3EDF0A3EEF0A3EFF0A3D0E0F0A3D0E02A
:101AA300F0A3D0E0F0A3E520F0A3E5F0F0A32285B6
:101AB3001983851882E0C0E0A3E0F9A3E0FAA3E06C
:101AC300FBA37808E0F608A3DFFAE0FCA3E0FDA39C
:101AD300E0FEA3E0FFA3E0C0E0A3E0C0E0A3E0F5E5
:101AE300D0A3E0F520A3E0A3F5F010AF0885831998
:101AF3008582188008858319858218D2AFD082D059
:101B030083D0E0F8D0E0327404800674028002745B
:101B130001C0E0F4041218BCD0E01217912274043F
:101B2300800474028000CCC0E0EDC0E0E518C39CE3
:101B3300CCAD1950011D10AF068C188D1980068C81
:101B4300188D19D2AF12179ED0E0FDD0E0FC22D041
:101B530083D082E9C0E0E493A3C386F0C5F095F097
:101B6300F908E493A386F0C5F095F0700BE493A312
:101B7300C3994005E9048002A3E475F002A4258219
:101B8300F582E5F03583F583D0E0F9E493A3C0E073
:101B9300E493C0E022D083D082ECC0E0EDC0E0E467
:101BA30093A3FCE493A3FDED4C600D121BE4EC2422
:101BB300FFFCED34FFFD80EFE493A3FCE493A3FD6E
:101BC300ED4C600D121C23EC24FFFCED34FFFD8073
:101BD300EFD0E0FDD0E0FCE493A3C0E0E493C0E0E9
:101BE30022C0E0C3E49396087401939618400FE46F
:101BF3009366700808740193661870007019A3A3A4
:101C0300C3E49396087401939618A3A3400DD0E000
:101C1300D0E0D0E0021BD4A3A3A3A3A3A3D0E022CC
:101C2300C0E0C0F088F0E49366700808740193661E
:101C3300187000A8F0A3A3700BD0F0D0E0D0E0D0D0
:0B1C4300E0021BD4A3A3D0F0D0E022ED
:101C500074F6121967EAFEEBFF8C088D09EE243446
:101C6000F8E43FF9E8FCE9FDEE2435121F63FAEED3
:101C70002437121F63F88508F0A4C885F00A850987
:101C8000F0A4250AF9EA28F8E439F97A257B00124C
:101C90001800EA8C828D83F0FA131313541FF8EEA8
:101CA00028F8E43FF9E8245DF582E439F583E0C0E3
:101CB000E074075AF8D0E0B800028004C313D8FCDF
:101CC000A2E0EE50082434F582E43F801824361256
:101CD0001F63F5F0EA84A8F0EE28F8E43FF9E82461
:101CE00038F582E439F583E0F97F03021A1374F7BB
:101CF000121967EAFEEBFFEE2434121F63C0E0EE18
:101D00002435F582E43FF583D0E0F08E828F83A303
:101D1000A3A3A3A3A3A3C082C0838E828F83A3A304
:101D2000A3A3A3E0F8A3E0F9D083D082E0C398F5A1
:101D300008A3E099F509EE247F121F636401703E49
:101D4000EE2480F582E43FF583C082C0838E828FCB
:101D500083A3A3A3A3A3E0240108A3E03400F9D044
:101D600083D082E0687003A3E06970127CDE7D049A
:101D7000120C7DEE247FF582E43FF583E4F0AC089D
:101D8000AD09EEFAEFFB121C50E9F91226BB7F02F7
:101D9000021A13C082C083851882851983E0F8A3D4
:101DA000E0F9C3EA9CEB9D5010C3EC98ED99401B01
:101DB000C3EA98EB995014800EC3EA98EB99400758
:101DC000C3EC98ED994004790180027900D083D06A
:101DD0008222EAC39CFAEB9DFB2274EF12196790F2
:101DE00003A3E064086005E06407702A9061C8E01E
:101DF00060249003D1E0F4601DE0F875F00BA4C8F6
:101E0000AAF02AF974D328FE740339FF8E828F83D7
:101E1000A3A3A3E07003021EE8906060E0C0E0EEC0
:101E20002468F582E43FF583D0E0F0750C4E750D23
:101E300005750800750900E5D914F50AE5D95403BC
:101E4000F50E60127403650E6043E50A600AEE2425
:101E500067121F6370028075900549E06401601F7E
:101E6000121F6060047A0480027A00E50AC39AFABD
:101E700095E0FB120B278A088B09EA4509700512C9
:101E80000EAB8064121F6070048A0C8B0DE50A6033
:101E900012850C82850D83F50BE5D9F0A3150BE5B2
:101EA0000B70F6121F60604474FC250AF50A780C6A
:101EB000121B0EAC0AA90EEEFAEFFB120D377402DC
:101EC0001218A1E97026AA08AB09121385793D8E74
:101ED000828F83A3A3A3A3E0FA7B00120989EEFA01
:101EE000EFFB120CA1120D497900806F7403650E8F
:101EF0006051850A107511007810121B0EAC0CADE4
:101F00000DAA08AB09120CFB74021218A1EE24688A
:101F1000121F6364807004747F8001E0F50C780CFC
:101F2000121B12E50EF50C780C121B12A90AAC0854
:101F3000AD099003D1E0FA7B0012095F7402121818
:101F4000A180139003A3E06408600BAC0CAD0DEE10
:101F5000FAEFFB120DC1120EB779017F0A021A13B4
:101F6000EE2483F582E43FF583E02274F2121967D0
:101F700074FC12188BEAFEEBFF8909A2AFE433F57B
:101F800008C2AF022035E0601B780C121B0EAC0BB0
:101F9000A90EEEFAEFFB120D3174021218A17404AF
:101FA000250BF50B7401250BF5D9850ED9E50B60D2
:101FB00018F50A850C82850D83E0F5D9A385820C7E
:101FC00085830D150AE50A70EA75E195EE2463F83C
:101FD000E43FF97A007B00A2AFE433F50BC2AF888F
:101FE000828983E0FCA3E0FDEC4D603A888289831E
:101FF000E0FAA3E0FB8A828B83E0FCA3E0FD888209
:102000008983ECF0A3EDF08A828B83E4F0A3F0885F
:10201000828983E0FCA3E0FDEC4D700A888289830D
:10202000A3A3E4F0A3F0E50BA2E092AF1213859016
:1020300004E5E004F0EE2463121F63F8A3E0F9E87E
:10204000496064EE2463121F632402F8A3E03400A5
:10205000F988828983E5822402F50CE43583F50D45
:10206000E0F50BA3E0F50EEE2462121F636401702D
:10207000369061D0E0F8121F6060047C0480027C1E
:10208000007480C398FA95E0FBE50B2CF8E434006B
:10209000F9E82402F8500109C3EA98EB99A2D26545
:1020A000D0334003021F869004E5E0604D9004E6C3
:1020B000E0F89004E5E0C398500C74026509703AAA
:1020C0009004E7E060348E828F83A3A3A3A3E0850E
:1020D000188285198312210A74021218D7E8122176
:1020E0000A9004E4E028F074021218F1AA18AB195F
:1020F00079011209B39004E5E4F0E508A2E092AF9B
:1021000074041218A17F07021A13F0A3E4F09004DC
:10211000E5E0F8228521878522C622C0E074EB1213
:102120001A53A2AFE433F508C2AF759B00906182E9
:10213000E0A2E05030E591A2E0502A7591FE7401D2
:10214000652170211222AE120E0312229C121B2155
:1021500012246574041218A1E96401700579011252
:102160000E3F121DDA906182E0A2E5505DE591A27A
:10217000E550577591DF9003A3E064076005E064C4
:1021800008702F1222AE74016521703E120E0312E8
:10219000229C121B2112246574041218A1E9640107
:1021A00070057901120E3F7901EEFAEFFB121F6BF9
:1021B0008018E0640D70139003C5E004F06428708B
:1021C00002E4F07A00E0F9120EBD906182E0A2E62E
:1021D0004003022271E591A2E6400302227175914B
:1021E000BF9003A3E064057008120DEB120DF78099
:1021F00003120DF1752100120E4BE99003A4F07942
:1022000000120E3F120BED7A017B009003A2E0F961
:1022100012134F907803E06442705690054DE0141D
:10222000F0704EC2AF12222800782AD0E0F618D003
:10223000E0F6E59F5407F87005750DFF8003750DF6
:102240007FC4C0E07829E6F50A08E6550DF50B7461
:102250000B780A121869D0E0250AF8906270E0A2A3
:10226000E740F8E8C333906272F0906270E0D2E029
:10227000F0906181E0A2E35009E5E9A2E350037523
:10228000E9F7A3E0A2E75009E591A2E750037591B1
:102290007FE508A2E092AF7F08021AB28E828F8398
:1022A000E0F8A3E0C82416F582E438F58322900311
:1022B000D1E0F875F00BA4C8AAF02AF974D328FE6F
:1022C000740339FF22C0E0C0D0C082C08390618314
:1022D000E0A2E05009E5BFA2E0500375BFFEE0A216
:1022E000E15009E5BFA2E1500375BFFDE0A2E25055
:1022F00009E5BFA2E2500375BFFBE0A2E35009E588
:10230000BFA2E3500375BFF7E0A2E45009E5BFA206
:10231000E4500375BFEFE0A2E55009E5BFA2E55028
:102320000375BFDFE0A2E65009E5BFA2E6500375E2
:10233000BFBFD083D082D0D0D0E032C0E074F212E0
:102340001A53E5A7A2E6500FE5A1A2E6500953A74C
:10235000BF75A1BF12238FE5A7A2E5500CE5A1A28E
:10236000E5500653A7DF75A1DFE5A7A2E15009E517
:10237000A1A2E1500375A1FDE5A7A2E2500CE5A1E1
:10238000A2E2500653A7FB75A1FB7F01021AB274AB
:10239000F71219677521019003A3E0640670151206
:1023A0000D6D8A828B83A3A3A3A3A3A3E0FAA3E06A
:1023B000FB120DD9A2AFE433FED2AF9003A9E064C3
:1023C0000170187A207B009003A2E0F91214757A4C
:1023D000207B009003A2E0F9121355906182E0D2B5
:1023E000E6F090054AE0602185C62280169003A899
:1023F000E064017008E5C654F84405F5C653BEFC18
:102400001221147401652160E4EEA2E092AF7F0214
:10241000021A13008E238F2485822885832785182E
:1024200082851983E0CEA3E0CF852882852783EBC0
:10243000C9EAC8EDCBECCA75F010C3E833C8E9337C
:10244000C9EA33CAEB33CBC3EA9EF526EB9FF525E9
:10245000B35004AB25AA26EC33CCED33CDD5F0DA5E
:10246000AE23AF242274F11219678A088B098C0AF3
:102470008D0B9081B17808121729740F1218D77834
:102480000C12174F9081B1780C1217297808790C2B
:1024900012156290816950107808790C1217017832
:1024A000081215824014800E780C790812170178F2
:1024B0000C12158250047901800279007F08021AFB
:1024C0001374ED1219678A088B098C0A8D0B9081A1
:1024D000B1780812172974131218D7780C12174FF5
:1024E0009081B1780C121729780C79081215624086
:1024F000117808790C121701AA08AB09AC0AAD0BC8
:102500008022751000751100751200751301781086
:10251000790C121701781079081216C8AA10AB119D
:10252000AC12AD137F0C021A139081B17808121708
:102530004F8A828B83780812173C7F04021A137427
:10254000F51219678C828D83780812174F8A828B57
:10255000837808121715122597C3E09CF0A3E09D1D
:102560001225894022908195780812174F8A828B14
:102570008378081216EE8A828B83A3A3A3A3E02498
:1025800020F0A3E0344EF080A0F088828983C3E07D
:102590009420A3E0944E22EA2404F8E43BF98C82D0
:1025A0008D83A3A3A3A3E0FCA3E0FD8882898322FB
:1025B00074F5121967E9FE900500E0FAA3E0FBEE5E
:1025C00029F8E433F974EB28F582748039F583E057
:1025D0002AF508A3E03BF5097808121B0E9081A9A3
:1025E00012176D12241474021218A18A088B098C18
:1025F0000A8D0B74107808121690AA08AB097F0494
:10260000021A1374F11219678A0C8B0D8C0E8D0F40
:1026100074111218D7121B2574111218D7E0240157
:10262000F508A3E03400F509E4F50AF50B780C7918
:10263000081215A1908175780812174F780C790847
:102640001215A1AA0CAB0DAC0EAD0F12241474021E
:102650001218A18B09EA450960047A0180027A0008
:10266000EC2AFCE43DFD74131218D7E0F8A3E0F95E
:10267000E8FEE9FFECF8EDF97A717B0212180088A8
:10268000088909E4F50AF50B8E828F837808121702
:102690005EECF8EDF97A717B021218008A088B095A
:1026A000740578081218788E828F83A3A3A3A3E5FC
:1026B00008F0A3E509F07F08021A13C082C083E97D
:1026C000906000F0D083D08222C0E074F2121A53DE
:1026D000A2AFE433FED2AFC2C0E5D1A2E45006758A
:1026E000D10F1212C5EEA2E092AF7F01021AB2C062
:1026F000E074F2121A53A2AFE433FED2AFE589A21E
:10270000E0500312122F758900C2C5EEA2E092AF0D
:102710007F01021AB2C0E074F2121A53A2AFE4337E
:10272000FED2AFE58BA2E0500312122F758B00C2D0
:10273000E8EEA2E092AF7F01021AB2C0E0C0D0E89A
:10274000C0E0A2AFE433F8D2AFC2C7E8A2E092AFD4
:10275000D0E0F8D0D0D0E032C0E0C0D0E8C0E0E9AE
:10276000C0E0EAC0E0EBC0E0C082C083A2AFE433C7
:10277000F9D2AF900A07E0F8900A08E068700B53AE
:102780009AFB900A097401F0802EC2E9900A07E0D2
:10279000F8740128900A07F0E8FA7B0074872AF59C
:1027A0008274093BF583E0F5C1900A07E0C3948089
:1027B0004006900A077400F0E9A2E092AFD083D0FF
:1027C00082D0E0FBD0E0FAD0E0F9D0E0F8D0D0D071
:1027D000E032C0E0C0D0E8C0E0E9C0E0EAC0E0EB31
:1027E000C0E0C082C083A2AFE433F8D2AFA9F9E958
:1027F000C0E0900A8DE0FA7B00740C2AF582740A1E
:102800003BF583D0E0F0900A8CE0FA900A8DE06A04
:102810007006E595900A8FF0900A8DE02401900AE9
:102820008DF0C394804006900A8D7400F0900A8E5B
:102830007400F0E8A2E092AFD083D082D0E0FBD069
:10284000E0FAD0E0F9D0E0F8D0D0D0E032C0E0C07B
:10285000D0E8C0E0E9C0E0EAC0E0EBC0E0C082C080
:1028600083A2AFE433F9D2AF900B10E0F8900B11D4
:10287000E068700B539AF7900B127401F0802EC22F
:10288000EA900B10E0F8740128900B10F0E8FA7B46
:102890000074902AF582740A3BF583E0F5F9900BF9
:1028A00010E0C394804006900B107400F0E9A2E0A1
:1028B00092AFD083D082D0E0FBD0E0FAD0E0F9D064
:1028C000E0F8D0D0D0E032C2AF0200002202011FF7
:1028D000FFFFFFFFFFFFFFFFD083D08202011F74C5
:1028E000F61218FBE9900315F0900375E0F50875F2
:1028F000090074027808121878AA08AB091213CDDF
:1029000090031612329290031612367F606F900376
:1029100075E075F003A4FAABF01213CD90033312F7
:10292000329290033312367F700B9003161236509A
:102930001213D380489003331245E47AFF7BFF12D1
:10294000119F7A0080198A087509007402780812AC
:10295000187812408C74FF122A92E4F0A3F00A90C7
:102960000375E0F8EAC39840DD790512084B90033F
:1029700015E0F912073D7AD57B08120AC702412FEC
:1029800074F41218FB8A088B09EB5480604790039B
:1029900015E0F91213378A0A8B0BAE0AAF0BEE4F14
:1029A000602A8E828F83E064B0701A12085DE9603D
:1029B000148E828F83A3A3A3A3E0F9EE2405FAE487
:1029C0003FFB120833EEFAEFFB121325AA08E509C4
:1029D0006480FB80047A007B00022BE274F2121800
:1029E000FB74FB12188BEAFEEBFFEE4F604574039D
:1029F0001218D7EEF0A3EFF0851882851983ECF05A
:102A0000A3EDF074021218D7E9F0AA18AB19120757
:102A100037E9F508707574131218D7E0F50AA3E0CA
:102A2000F50BE50A450B60638E828F8312301BEE37
:102A30004F700575080280537A067B001213CD8A09
:102A40000C8B0DA80CA90DE8497005750813803B87
:102A500088828983E4122A92EEF0A3EF122BAEE56E
:102A60000AF0A3E50BF0900319122BA7900319604D
:102A700017E0FCA3E08003EAFCEBFD8C828D83125F
:102A80002BA770F38C828D83123CA7A908740502D2
:102A90004864F0A31245C6A32274F21218FB8908F9
:102AA000890C750D007403780C121878850C0A8552
:102AB0000D0B900318F0900316123AB2122BA5607A
:102AC0002E1213D37900801D890C750D00740278C5
:102AD0000C121878900316123F4B8882F583A3A33B
:102AE000E4F0A3F009900375E0F8E9C39840D990A9
:102AF0000375E0FA850AF0A4CAA8F0850BF0A428B3
:102B0000FB1213CD8A0C8B0DAE0CAF0DEE4F700384
:102B1000022B9B900375E0FC850AF0A4CCA8F085FD
:102B20000BF0A428FD79001213137C0080318D0C6A
:102B3000750D007403780C1218788A828B83122B1F
:102B4000A088828983E4F0122BADA3A3F0A3F00D3B
:102B5000EDC3950840D8EE250AFEEF350BFF0C902B
:102B60000375E0F8ECC39850288C0C750D007402C6
:102B7000780C121878900316122BA0E8240250014A
:102B800009FAE9FB8A828B83EEF0A3EFF07D0080E7
:102B9000BFE508900318F0790080027913024867B6
:102BA000123F4FF922A3A3123654EA4B22A3124537
:102BB000C6A3A3A32274F41218FB7900EAA2E05082
:102BC0001F7508387509817808121B0E79107C046E
:102BD0007D007AF87B1A12084574021218A1E9F9EF
:102BE00080007F040219CDC082C083900319123681
:102BF0007F601C88828983A3A3E06A7003A3E06BD3
:102C00008882898370E8A3A3A3A312365080047A34
:102C1000007B000228D874F21218FB74FD12188B86
:102C2000EAFEEBFF851882851983E4F0A3F07402B5
:102C30001218D77401F012367C7014120A011213A4
:102C4000CD90031C12329212367C7003022DA81212
:102C50003392EE2404F50AE43FF50B850A82F583EE
:102C6000E024FE603C24FC607424FE607E24FE7040
:102C700003022CF824FE7003022D0524FE700302CB
:102C80002D1224FE7003022D1F24FE7003022D2C32
:102C900024FC7003022D4D24FE7003022D65022DCD
:102CA000A1120A0190031EEAF0A3EB122DB4120444
:102CB00073E96003022DA190031E121B258E828FE3
:102CC00083A3A3A3A3A31245E485088285098312E5
:102CD000365012081B74021218A1022DA1AC18ADB7
:102CE00019EEFAEFFB120863022D70AC18AD19EE65
:102CF000FAEFFB1208698078AC18AD19EEFAEFFB19
:102D000012086F806BAC18AD19EEFAEFFB12087564
:102D1000805EAC18AD19EEFAEFFB12087B8051AC67
:102D200018AD19EEFAEFFB120881804474021218F4
:102D3000E1880C890D780C121B0E74021218F1EE4A
:102D4000FAEFFB12088774021218A18023AC18ADA9
:102D500019EEFAEFFB12088DE9F8701674021218DA
:102D6000D7E4F0803CAC18AD19EEFAEFFB120893F3
:102D7000E9F8E8602C8E828F83A3E06414602285DA
:102D80000A82850B83E090031EF0851882851983E3
:102D900012365090031F123292E8A3122DB412047F
:102DA0006DEEFAEFFB1207F174021218D7E0F97416
:102DB00003024864F07C1E7D038508828509831226
:102DC00036542274E81218FB74FA12188B74041229
:102DD00018D7ECF0A3EDF08A128B13EA2405F50E58
:102DE000E43513F50FEA2402F510E43513F51185E7
:102DF0001082F5831236501205638A0A8B0B750810
:102E0000007C037D0079007A1E7B03121313E50E0C
:102E10002402F516E4350FF51774021218E1880C38
:102E2000890D780C121B0E850E82850F83A3A3A338
:102E3000A3E0F50C750D00780C121B0EE50E2405B1
:102E4000F50CE4350FF50D780C121B0E85168285F6
:102E5000178312395712075574061218A18A0C8B62
:102E60000DE50C450D7003022FE480208518828546
:102E70001983E088828983F0050885188285198383
:102E8000A3E0C0E0123025D0E0F00508E50A24FBFD
:102E9000FAE50B34FFFBC3E5089AE49B4003022FDD
:102EA000E47E007F00851282851383A3A3A3A3E0A1
:102EB000F5097809121B12E4F514F5157814121BA4
:102EC0000E75141B7515037814121B0E90031C123B
:102ED0001B2574091218D7121B25E50A24F9F9AC31
:102EE0000CAD0D8510828511831236501208BD7409
:102EF000091218A1E96003022F85850E82850F83D0
:102F0000A3A3A3A3A3A3A3E0F890031BE068707599
:102F1000E0F5148E157814121B0E1245E1850E8211
:102F2000850F83A3A3A3A3A3A3A3A31236501213B5
:102F30000D74021218A1E9604C90031F12367F70C5
:102F40003BE4F5147814121B0E7CFF7DFF79078596
:102F5000108285118312365012082D74021218A1A6
:102F60001236857017850E82850F8312477E740492
:102F70001218D712403F123988023018850C82850A
:102F80000D8312301BA818A91988148915781412FA
:102F90001B0E74041218D7121B2585168285178301
:102FA00012328812076174041218A18A0C8B0DEE7C
:102FB0004F7003022E61123025EE12303012393E6E
:102FC000EF123030F8A3E03400F9E50C450D600352
:102FD000022E6C8882898374FFF0050812302574F4
:102FE000FFF00508E508601A1313543F12329812D7
:102FF000047FE9600990031F12365012138579008F
:103000008016850E82850F8312477E74041218D7AE
:1030100012403F123CA7790A023911A3A3A3A3E0EF
:10302000FEA3E0FF22A80890031FE02812393E22E9
:10303000F005080890031FE0282274E81218FB74BA
:10304000FA12188B74021218D712329274041218E2
:10305000D7ECF0A3EDF074021218D7E02405123972
:1030600027E0F50CA3E0F50D74021218D7E0240256
:10307000F510A3E03400F511851082F58312365067
:10308000120563750800750900EA24FCFEEB34FFA5
:10309000FF8008050CE50C7002050DA808C3EE982A
:1030A000EF94005003023244A818A919880E890F22
:1030B000780E121B0E851482851583A3A3A3A31279
:1030C00045E8121B0EE5142405F50EE43515F50F41
:1030D000780E121B0E851482851583123286120714
:1030E0005574061218A18A0E8B0FEA450F70030261
:1030F0003244EA2404F516E4350FF517851682F5F7
:1031000083E0F50CA3E0F50D85188285198312453F
:10311000E48A828B83A3A3A3E0F9851082851183BF
:10312000123650120743E9F5096003023244740273
:103130001218D712394EF5097809121B12E4F5124C
:10314000F5137812121B0E75121B751303781212E9
:103150001B0E90031C121B2574071218D7121B2577
:10316000EEF9AC0EAD0F8510828511831236501228
:1031700008BD74091218A1E9F5096003023244E59B
:1031800008703FE4F50EF50F780E121B0E7CFF7DE4
:10319000FF790985108285118312365012082D742B
:1031A000021218A1123974700D74041218D7123259
:1031B0007B791102327890031BE0240290031FF008
:1031C000801490031FE0FA90031BE0790024025062
:1031D00001096A497072A80890031BE0FAE82AFA0C
:1031E000E43400FBEE9AEF9B405A851682851783E4
:1031F000E0C0E090032012302AD0E0F005088516E8
:1032000082851783A3E0C0E00890032012302AD003
:10321000E0F0050890031B1245E8121B0E1245E171
:10322000A80812391B1212FB74021218A190031B7A
:10323000E02508F50874FF650C700474FF650D60E7
:1032400003023093E508601F90031FE0F5F0E508E6
:1032500084123298120485E96009900320123650D6
:1032600012138579008011E509700375090A740449
:103270001218D712327BA909023911123AB6E50C9D
:10328000F0A3E50DF022A3A3124873AA0CAB0D2204
:10329000A3A3EAF0A3EBF02290031EF07C1E7D03B3
:1032A0008510828511831236542274EC1218FB7437
:1032B000FC12188B123DB774021218F112364A1222
:1032C000075B8A0C8B0DEA450D70030233821233C3
:1032D00092A818A919881089117810121B0E7CFF6A
:1032E0007DFF790B85088285098312365012082DDF
:1032F00074021218A1123488700C850A82850B831F
:1033000012398502338F8E828F83A3A3A3A3E0F5A6
:10331000127812121B12E4F512F5137812121B0E1A
:1033200075121E7513037812121B0E7810121B0EE5
:1033300074091218D7121B2574091218D7E0F9ACBA
:103340000CAD0D8508828509831236501208BD74B4
:10335000091218A1E9FE70157C1E7D03850882857F
:10336000098312365012048BE97009802074166E9E
:1033700070027E0090031F123650121385EE700407
:10338000800B7E01850A82850B83123CA4EEF90234
:103390003CB9EE2402F508E43FF5092274EC12185A
:1033A000FB74FC12188BEAFEEBFF8C0E8D0FEE24E3
:1033B00005F508E43FF50974021218F185088285C5
:1033C000098312365012075B8A0C8B0DEA450D708B
:1033D00003023478EE2402F50AE43FF50BA818A99D
:1033E00019881089117810121B0E7CFF7DFF790D52
:1033F00012364A12082D74021218A1123488700B6A
:10340000850882850983123985807A8E828F83A30D
:10341000A3A3A3E0F5127812121B12850882850976
:1034200083A3A3121B2575121E7513037812121B9A
:103430000E7810121B0E74091218D7121B2574096E
:103440001218D7E0F91236461208BD74091218A1F5
:10345000E9FE700F7C1E7D0312364A120491E9705A
:1034600009802074166E70027E0090031F12365081
:10347000121385EE7004800B7E0185088285098316
:10348000123CA4EEF9023CB912368FF510A3E0F518
:1034900011EA45112274E81218FB74FE12188B8A87
:1034A000168B178C148D15EA2405F50CE43517F5E9
:1034B0000DEA2402F50EE43517F50F850E82F5832B
:1034C0001236501205638A088B09750B007C037D48
:1034D0000079007A1E7B03121313750A00E50814A5
:1034E000F5100424FFF508E50934FFF50980549030
:1034F000031EE0FA90031BE0F8EA28F8E43400F930
:10350000E50898E50999500D90031EE0F8E510C311
:103510009890031BF0E0F5127513007812121B0E41
:103520001245E190031FE02AFAA3E03400FB1212D7
:10353000FB74021218A190031BE0F890031EE02810
:10354000F0050A850C82850D83A3A3123F5B40031F
:1035500002362B90031EE0C39508E4950940030250
:10356000362BAE0AEE2EFEE433FF12366AAC18ADEF
:10357000191245FCE439FB12075B8A128B13AC125B
:10358000AD13EC4D701B750B0112365A123CA8900E
:10359000031F122BA76003121385A90B74020239B3
:1035A00013851682851783A3A3A3A3E0F50B780BDD
:1035B000121B12E4F512F5137812121B0E75121B72
:1035C0007513037812121B0E90031C121B2574072F
:1035D0001218D7121B25A910850E82850F8312366B
:1035E000501208BD74091218A1E9F50B709B9003E5
:1035F0001F12367F60030234EFE4F512F5137812E0
:10360000121B0E7CFF7DFF790F850E82850F8312C2
:10361000365012082D74021218A11236856003026A
:1036200034EF12365A12398902359C7C1E7D03858F
:103630000E82850F83123650120497E9600302351B
:103640008F790002359CAC0CAD0D850A82850B8309
:1036500012365422E0FAA3E0FB2212366AE0FAA303
:10366000E0F9EA85148285158322850C82850D8315
:10367000E02EF8A3E03FF9888289832290031C1290
:103680004782E8492212368FF8A3E0F9E8492290F0
:10369000031FEAF0A3EBF090031FE02274E8121876
:1036A000FB74FA12188B74041218D71232928C160B
:1036B0008D1774041218D7E02405F50EA3E034002A
:1036C000F50F74041218D7E024021239271236506D
:1036D0001205638A0A8B0B7F007E00A818A919883F
:1036E0000889097808121B0E850E82850F83A3A313
:1036F000A3A3E0F5088E097808121B0EE50E240539
:10370000F508E4350FF5097808121B0E850E828541
:103710000F83A3A312395712075574061218A18AF2
:103720000C8B0D8029123948F00F123948F00F9098
:10373000031B123C93121B0E1245E1EFF812391BCA
:103740001212FB74021218A190031BE02FFFE50C6C
:10375000450D70030237D7851882851983123DC93C
:10376000A3A3A3E0F98514828515831236501207AE
:1037700043E9FEE50C2404F510E4350DF511EE7077
:103780005074041218D712394EF5087808121B121B
:10379000E4F508F5097808121B0E75081B75090376
:1037A0007808121B0E90031C121B2574071218D7E1
:1037B000121B25E50A24FAF9AC0CAD0D851482859F
:1037C00015831236501208BD74091218A1E9FE6063
:1037D00039123964123CA7EF70030238FE90031FC0
:1037E000E0F5F0EF8490031EF07C1E7D03851482CB
:1037F00085158312365012049DE96009900320124A
:10380000365012138579000239118F08EF703BE4AE
:10381000F512F5137812121B0E7CFF7DFF791185CE
:10382000148285158312365012082D74021218A1C5
:1038300012397470091239641239880239119003EF
:103840001BE0240490031FF0803590031BE0F890E8
:10385000031FE0FAE82404FCE43400FDEC6A4D6048
:10386000030237DDE50A24FAFAE50B34FFFBE5082D
:1038700028F8E43400F9EA98EB9950030237DD8523
:103880001082851183E0C0E0900320E02FF8A3E0D0
:1038900034008882F583D0E0F00F85108285118393
:1038A000A3E0C0E0123935D0E0F00F74021218E145
:1038B000880889097808121B0E74021218D7121B87
:1038C00025850E82850F83123286120761740412D9
:1038D00018A18A0C8B0DEA450D700302372574027E
:1038E0001218D7E0C0E0123935D0E0F00F740212A0
:1038F00018D7A3E0C0E0123935D0E002372DEE70C2
:10390000027E0A850E82850F8312396A123CA7EE69
:10391000F974061218A17F100219CD900320E02837
:10392000FAA3E03400FB22F514A3E03400F515857A
:103930001482F5832212393922900320E02FFAA352
:10394000E034008A82F5832212393974FF22123A58
:10395000B6A3A3A3A3E022124873850E82850F832A
:103960001236542285108285118312478285168271
:1039700085178322900320EAF0A3EBF09003201236
:103980004782E84922123CADE8F0A3E9F079112220
:1039900074EA1218FB74FE12188B8A088B098C12B9
:1039A0008D13EA2405FEE43509FFAC18AD198E82AB
:1039B0008F8312365012075B8A0C8B0DEE2406F5AE
:1039C0000EE43FF50FEA450D7003023A88E508243E
:1039D00002F50AE43509F50B8A828B83A3A3A3E0E1
:1039E000A2E550288518828519831236501208B135
:1039F0008A108B11EA451160207912123646851023
:103A0000828511831218F9E9F50C707F850E828585
:103A10000F83E0600979528011750C0E806D850866
:103A200082850983A3A3A3A3E0F9E4F508F5097847
:103A300008121B0E8E828F83A3A3E0F5087808126C
:103A40001B0E8E828F83A3A3A3121B258E828F83CE
:103A50001245E412364A1208C374061218A1E9F599
:103A60000C7011850E82850F83E0702D12364A127C
:103A700004A380257416650C7011750C007418125F
:103A800018D7123AB2E48010750C0112477A8512E9
:103A900082851383E8F0A3E9F0850E82850F83E029
:103AA000600479008002A90C74021218A17F0E0232
:103AB00019CD123AB622E0F8A3E0F5838882227489
:103AC000EC1218FB74F712188B8A0A8B0B8C108D72
:103AD00011EA2405FEE4350BFF750C00AC18AD1996
:103AE0008E828F8312365012075B8A088B09EA4553
:103AF000097003023C7EE50A2402F50A5002050B18
:103B00008A828B83A3A3A3E0A2E5502F8518828528
:103B100019831236501208B18A0C8B0DEA450D60DC
:103B20004F7912AC08AD0912364A850C82850D8397
:103B30001218F9E9F50C6003023C81850A82850BB5
:103B400083E0F508A3E0F509AA08FB1208A5EA4BF3
:103B500070197AFF7BFF1208A5EA4B7003023C74D0
:103B60008A828B83E508F0A3E509F07508008008D8
:103B7000750C0E023C810508900318E0F8E508C3B7
:103B8000984003023C7485080E750F007403780E8C
:103B90001218788A828B83A3A3E0250EF8A3E03560
:103BA0000F12404870D08E828F83123C9C1232924A
:103BB0008E828F83A3A3123C9C123290EE2404F5D4
:103BC00008E43FF509850882F583E088828983A3AC
:103BD000A3A3A3F0A3E4F0EE2405F50EE43FF50F54
:103BE000850E82F583123C9CA3A3A3A31232907589
:103BF00012077513007812121B0EEEFCEFFD740411
:103C00001218E91212FB74021218A1E4F5127812CC
:103C1000121B0E850882850983E0FC7D007917124E
:103C2000364A12082D74021218A174071218D712FE
:103C3000329274071218D7E0FA4B603D85088285EE
:103C40000983123C93121B0E850E82850F83124549
:103C5000E41212FB74021218A174021218F1123647
:103C60004A1204A9E9602674071218D712365012B6
:103C700013858019750C098008750C118003750C6B
:103C80000112477A851082851183123CA7A90C7412
:103C9000098028E0F5087509007808221236548852
:103CA00082898322123CADE8F0A3E9F022E0F8A378
:103CB000E0F9850E82850F832274041218A17F0C0F
:103CC0000219CD74EC1218FB123DB7751000EE24EA
:103CD00002F50CE43FF50D850C82F5831236501287
:103CE00008A58A088B09EA45097003023D9B850AED
:103CF00082850B83E064016003023D90AC08AD094E
:103D0000AA0AAB0B120899E9606E850882850983BF
:103D100012301DEE2406F50AE43FF50B8E828F83E8
:103D2000A3A3121B258E828F83A3A3A3A3121B25FB
:103D3000850A82850B83121B2579188E828F831248
:103D40003DC91236501208C374061218A1E9F8745E
:103D50001668700B850A82850B83E4F0A38014E853
:103D600060128E828F83123650850E82850F83EA11
:103D7000F0A3EBF088108018780E121B0EAC08AD83
:103D800009EEFAEFFB12089F74021218A1E9F51070
:103D9000AA08AB091208ABE510700E850C82850DE0
:103DA000831236501204AF800974166510700375C3
:103DB0001000A910023CBEEAFEEBFF8C0E8D0FEE48
:103DC0002405F50AE43FF50B22124873850C828521
:103DD0000D832274EA1218FB7508007509007E0035
:103DE0007F00750A00EC2402F510E43DF5118035E2
:103DF000EC65087003ED65096003023E88888289DE
:103E000083A3A3E06A7003A3E06B707C888289833C
:103E1000A3A3A3A312477EEE28FEEF39FFEA28FAF8
:103E2000EB39FB050A123F58503A850A0C750D0014
:103E30007403780C121878851082851183123F4B19
:103E4000124048601FE508450970A58C088D098857
:103E500082898312301B88828983A3A3E02EFAA370
:103E6000E03F80BEE50AC394025003023F46750856
:103E700000750900EE4F6010EEFAEFFB12137F8A17
:103E80000E8B0FEA450F70057900023F48750B0055
:103E9000023F1B850B0C750D007403780C1218780B
:103EA000851082851183E0250CF50CA3E0350DF516
:103EB0000DE50C2406F514E4350DF515851482F591
:103EC0008312404D6042E50C2404F512E4350DF5F3
:103ED00013851282F583121B25E50E2508FAE50FDE
:103EE0003509FB1212FB74021218A1851282851388
:103EF00083E02508F508A3E03509F50985148285D6
:103F00001583123650121385E50B600D7C087D0079
:103F10007900AA0CAB0D121313050BE50BC3950A20
:103F20005003023E9385108285118312477E88825A
:103F30008983A3A3A3A3A3A3E50EF0A3E50F122BEC
:103F4000AEEEF0A3EFF07901023AAD123F4F22E05E
:103F5000250CF8A3E0350D22900318E0F8E50AC31C
:103F6000982274F01218FB8A0E8B0F8C0A8D0B7539
:103F70000D00750C0080507916EE2406F508E43F1C
:103F8000F5098E828F83A3A3121B258E828F83A3B4
:103F9000A3A3A3121B25850882850983121B2585EF
:103FA0000E82850F83A3A31236501208C374061223
:103FB00018A1E9F50D7416650D706C8508828509E8
:103FC00083E4F0A3F0050C900318E0F8E50CC39827
:103FD0005066AA0C8A0875090074037808121878CC
:103FE000850A82850B83A3A3124097E8FEE9FF8E22
:103FF000828F8312404D6040EA2401F508E43400CA
:10400000F509900318E065087002E50960148882DC
:104010008983A3A3A3A3A3A3A3A312367F60030250
:104020003F777918023F79E9609B12477A74101242
:1040300018D712403F123CA7A90D7F080219CDE006
:10404000FAA3E0F5838A8222F98882898312487371
:10405000EC4D2274F61218FB7C0080010C90037565
:10406000E0F8ECC398501E8C0875090074027808BB
:1040700012187812408CE06A7003A3E06B70DDE8E0
:10408000FAE9FB80047A007B0002412F90031612AC
:1040900040978882898322E02508F8A3E03509F952
:1040A0002274F21218FB8A088B09750A0080278E89
:1040B000828F83A3A3A3A3122BA560031213857C75
:1040C000087D007900EEFAEFFB1213138E828F83C6
:1040D000E4F0A3F0050A123F585027850A0C750D2D
:1040E000007403780C121878850882850983A3A3CD
:1040F000E0250CFEA3E0350DFF8E828F8312367F04
:1041000070AD85088285098374FFF0A3F0024867CB
:1041100074F61218FB1208578A828B83E582458356
:1041200070067A007B008007A3A3A3A31236507FFA
:10413000020219CD74F41218FB89088C828D83E079
:104140006402703C12471DFEA3E0F9EEF8740268A9
:1041500070037429697029750A02750B00780A12B8
:104160001B0E74101218D7121B2574101218D712B8
:104170001B25A9081211B174061218A1E9F98002D1
:104180007901022BE274E81218FB74FB12188BE918
:10419000851882851983F08A168B17ECFEEDFF7562
:1041A00010008E828F83A3A3A3E0A2E4502D741D80
:1041B0001218D71236501208B18A828B83E58245D5
:1041C0008370030245BC790AEEFCEFFDAA16AB171B
:1041D0001218F9E9F51060030245BF741F1218D7D1
:1041E000E0F508A3E0F50974211218D7E0F50AA359
:1041F000E0F50B74231218D7E0F50EA3E0F50F8E4F
:10420000828F83E06402600302455DA312477E85CE
:104210000882850983A3858212858313EE2406F51F
:104220000CE43FF50D888289831245FCF514E439CE
:10423000F5157814121B980100002801285F420729
:104240000002282443032892420029534401297E76
:104250004402291F44032953440429F7445D45E5DA
:104260000E450F6003024558850C82850D83124769
:104270007EE8FAE9FB8A828B83E0850A82850B83DC
:10428000124607121B0E8A828B83A3E0FCA3E00276
:1042900044E1E50E450F6003024558850A82850B0F
:1042A000837401F01245F1850882850983F07C0052
:1042B0007D008E828F83A3A3A3A3E02401FAA3E051
:1042C0003400FB12075BEA4B60408A828B83E02458
:1042D00002F8850A82850B83E028F0EA2404F8E4DA
:1042E0003BF988828983E085128285138312461503
:1042F000124607121B0E8A828B83A31245E4E5083F
:104300002403FAE43509FB0244E6850A82850B831F
:10431000E02404F07C047D007900AA12AB13121390
:10432000130245BFE50E450F60030245581245F1E3
:10433000FEA3E0FF850A82850B837404F0EE8508F6
:1043400082850983F0EF851282851383F07403124E
:1043500018F1EEFAEFFB12075B8A0C8B0DEA450DA4
:1043600070030244028A828B83A3A312301B740160
:104370001218E1880E890F780E121B0E74051218A0
:10438000D7121B257CFF7DFF12076174041218A150
:104390008B0FEA450F7033850C82850D831245E83B
:1043A000121B0E850C82850D83A3121B257C027DBA
:1043B000007AD87B8112055174041218A1E9700AA1
:1043C00074011218D774FFF0A3F08E828F83E0641B
:1043D000027039750C02750D00780C121B0E8E825E
:1043E0008F83A31245E4E5082404FAE43509FB129F
:1043F00012FB74021218A1850A82850B83E0240245
:10440000800974011218D7EEF0A3EFF074011218AE
:10441000D71245D674011218D71245CD024552E580
:104420000E450F6003024558850C82850D831248A6
:104430006CAA16AB171211B7850A82850B8374021A
:10444000F0850882850983EAF0851282851383EB63
:10445000024555E50E450F60030245581245F1F837
:10446000A3E0F9850A82850B837402F0E88508824F
:10447000850983F0E9851282851383024555850CF1
:1044800082850D831236501212F5EAFAF8C3950EA2
:10449000E4950F405CE8650E450F70047A008021BA
:1044A000851882851983E0FCE50E2CFCE4350FFDB0
:1044B000C3EC98ED94005003E08005E50ECAC39A62
:1044C000FAEA850A82850B83F08A0A750B00780A5E
:1044D000121B0E850C82850D83E0250EFCA3E035B2
:1044E0000FFDAA08AB091212FB74021218A10245B3
:1044F000BF7510070245BFE50E450F705B850C8246
:10450000850D8312477E850A82850B837407F088A8
:104510008289831245CE1245C6E0851282851383B7
:10452000F0E82402FAE439FB8A828B831245D68AAA
:10453000828B831245CDA3A3122BAD1245DBF0E88D
:104540002405F8500109888289831245DBA31246AD
:1045500015A3A3A3A3F0806775100B8062741D12CE
:1045600018D71236501208578A828B83E58245830A
:10457000604A12477E880C890DE8450D603E74251F
:104580001218D7E0F5107810121B12780E121B0EBD
:10459000780A121B0E7808121B0E74071218D7E047
:1045A000F9EEFCEFFDAA16AB17850C82850D831280
:1045B00018F974071218A1E9F510800375100EA9F7
:1045C000107405023913F088828983A322A3E08541
:1045D00008828509832212461CF02212461CA3A3DE
:1045E0002290031C12487322E0F50E750F00780E1E
:1045F00022850C82850D83123AB6E022E0FAA3E010
:10460000F8E4C8F9EA2822F08A828B83E0F50A757B
:104610000B00780A221245C612461C22E085088249
:10462000850983A3A32274EE1218FB74FE12188B63
:104630008A088B09ECFEEDFF890AAC18AD19EEFA79
:10464000EFFB12075B8A0C8B0DEA450D70030247E6
:104650000E8518828519831236501208578A828B6C
:1046600083E58245837003024709A3A312477E882E
:104670000E890FE8450F700302470974141218D70A
:10468000E0F510A3E0F511E50AF50B780B121B120B
:1046900074191218D7121B257810121B0E741B12D6
:1046A00018D7E0F9AC0CAD0DAA08AB09850E8285D0
:1046B0000F831218F974051218A1E9F50B705274E2
:1046C000FE650A604C850C82850D83E064027041B2
:1046D00012471DFAA3E0F9EAF8740268700374291E
:1046E00069702E8510828511831245FCF50CE43922
:1046F000F50D780C121B0EEEFCEFFDAA08AB0912AB
:1047000008DB74021218A18008750B0E8003750B6C
:1047100001A90B74021218A17F0A0219CDA3124736
:104720008288828983E02274F61218FB74FE1218C4
:104730008B740C1218D712477EE88518828519836E
:10474000F074011218D7E9F0E4F508F509780812B9
:104750001B0E7508027808121B0E74041218E188EB
:104760000889097808121B0E79FE1208C374061214
:1047700018A174021218A102412F8E828F83124752
:104780008222E0F8A3E0F92274F71218FBEAFEEBAC
:10479000FF89089003331245E41211B7EA5402600E
:1047A0000BA908EEFAEFFB12074F800279017F0197
:1047B0000219CD74F21218FB74FE12188BEAFEEB8C
:1047C000FF890A7401650A60147402650A600302B5
:1047D00048627901120AE5E96003024862EEFAEFE5
:1047E000FB1208A5EA4B60031208ABA818A91988A8
:1047F0000889097808121B0E7508027509007808E7
:10480000121B0E7508DE7509817808121B0E7CFFDD
:104810007DFF7A017B0012075574061218A18038BB
:10482000850882850983A3A3A3A3A3A312486CEEE2
:10483000FAEFFB12119FE4F50CF50D780C121B0E2C
:1048400074021218D7121B257CFF7DFFAA08AB0942
:1048500012076174041218A18A088B09E50845093A
:1048600070BE74021218A17F060219CD123AB61258
:10487000487322E0FCA3E0FD2274F41218FB8A08BE
:104880008B09ECFEEDFF901AF6E0F4604B7A097BA1
:104890000012131FEA4B60408A828B8374B1F0A32D
:1048A000E41248DBF08A828B83A3A3E508F0A3E53A
:1048B000091248DBA3EEF0A3EFF0740C1218D71224
:1048C000477E8A828B83A3A3A3A3A3A3A3123CA79F
:1048D000901AF6E0F912132B022BE2F08A828B83F6
:1048E000A3A3A3A32274EC1218FB74DA12188B8909
:1048F0000D8A128B138C0A8D0B743A1218D7E0F5BF
:104900000C908144AC18AD19740612179EAC18AD0A
:1049100019AA12AB13A90D1210D3E9FEEEC3940A23
:104920004003024A5AEEF9121109E9FF901BE2E036
:1049300064027004740180027400F5087808121B88
:1049400012AD0CEFFCEEF9AA0AAB0B121187740141
:104950001218A17C147D00790074121218E9121348
:10496000138A0E8B0F850E08850F0974121218F129
:104970007A1075F006EEA42424F9121445E9703C6F
:104980007C1079FF74121218E9121373E9702D74F8
:10499000221218D7AC82AD837A0475F006EEA424F7
:1049A00025F9121445E9F50874121218F1EFA2E086
:1049B000E433F9AA0AAB0B1205F3E9F874061218EE
:1049C000F17A0C74702EF9121445E9707A7406129B
:1049D00018E91210FD750E00E50EC394045068E549
:1049E0000EF87900E875F003A4C8AAF075F000A4E9
:1049F0002AFA75F003E9A42AF974061218D7E58299
:104A000028F508E58339F509850882850983E0F8EA
:104A1000A3E0F9E849602C850882850983A3A3E017
:104A2000F5107511007810121B0E85088285098318
:104A3000E0FCA3E0FDAA0AAB0B1208C9740212182D
:104A4000A1E9F8050E8091EFA2E1500E900775E004
:104A5000F9AA0AAB0B1208CFE9F87404650C700FC1
:104A6000901BE2E064027007AA0AAB0B1211757981
:104A70000074261218A17F0C0219CD74F71218FBCE
:104A8000EAFEEBFF1206E9E9706990081EE0640196
:104A9000701B121139E9F50890081E7400F07C0AA9
:104AA0007D0079007A1F7B08121313803B75080084
:104AB000E508C3940A5031E508F87900741F28F519
:104AC00082740839F583E064017019A90812113F56
:104AD000E9F8E508FA7B00741F2AF58274083BF5B3
:104AE000837400F0050880C8795012144BE9F5086A
:104AF0001211277F010219CD74F21218FB890BEAFB
:104B0000FEEBFF8C088D09750A0AE50B600C14603A
:104B100009146044146064024B9DEEFAEFFB12111D
:104B20001BE9F50AE50AC3940A5072E508450960D5
:104B30006C750C06750D00780C121B0EEEFCEFFD6B
:104B4000AA08AB091212FB74021218A18A0C8B0D71
:104B5000850C82850D838045EEFAEFFB121115E975
:104B6000F50AE50AC3940A5034E5084509602EAAFF
:104B700008AB09A90A12110FE98022EEFAEFFB1225
:104B80001121E9F50AE50AC3940A5011E50845091F
:104B9000600BAA08AB09A90A12110FE9F8A90A7F4C
:104BA000060219CD74F21218FB8A0C8B0DE9FF7EF8
:104BB0001574FF650C700474FF650D702A7508008C
:104BC000E508C3940A5014EFFC7A027B00A908128E
:104BD00010EBE960027E00050880E5EF60627A6311
:104BE0007B11120B098059AA0CAB0D120AD98A0A43
:104BF0008B0B850A08850B09E508450960407C0098
:104C00007D00E5082405FAE43509FB85088285095D
:104C100083A3A3A3A3E0F91210D3E9F50AE50AC31D
:104C2000940A500EEFFC7A027B00A90A1210EBE9FD
:104C30007E00EF600BAA08AB0912116380027E149C
:104C4000EEF97F060219CD74EE1218FB8A0E8B0F57
:104C50008C0A8D0B74121218D7E0F50CA3E0F50D39
:104C600075081574FF650E700474FF650F701E7E65
:104C700000EEC3940A5061AC0CAD0DAA0AAB0BEE6A
:104C8000F91210F1E960037508000E80E4AA0EAB7A
:104C90000F120AD98A108B11AE10AF11EE4F60358A
:104CA0007C007D00EE2405FAE43FFB8E828F83A317
:104CB000A3A3A3E0F91210D3E9F509E509C3940A07
:104CC0005016AC0CAD0DAA0AAB0BA9091210F1E9F4
:104CD0007508008003750814A9087F0A0219CD74AD
:104CE000F01218FB74EC12188B8A0C8B0D850C8259
:104CF000850D83A3A3E024FA700302515824FD70AC
:104D000003024FCD147003024DCF14601024FD70C8
:104D100003024F7514700302500C02516BAE0CAFBE
:104D20000D90078FE0F8A3E0F9E849606690078FDF
:104D3000E0F8A3E0F5838882E0F8A3E0F9E84960B1
:104D400052EE240CF582E43FF583E0F50878081272
:104D50001B12EE240BF582E43FF583E0F98E828F7F
:104D600083A3A3A3A3A3A3A3A3A3E0FCA3E0FDEEBB
:104D70002403FAE43FFB90078FE0F8A3E0F5838873
:104D800082E0F8A3E0F58388821218F97401121802
:104D9000A180398E828F83A3A3A3A3A3A3A3A3A3DC
:104DA000121B2590078B12176D120605740212183C
:104DB000A1E9601879018E828F83A3A3A3A3A3A383
:104DC000A3A3A3E0FAA3E0FB1205FFE902516BAE37
:104DD0000CAF0D7508008E828F83A3E06003024E36
:104DE000F78E828F83A3A3A3A3A3E0A2E0400302D4
:104DF0004EF7900829E0F8A3E0F9E8496003024E75
:104E0000F77C0E7D007900AA18AB191213138A0AD9
:104E10008B0BAA0AAB0BEE240CF582E43FF583E082
:104E2000F8A3E0F9E8496036750A06750B00780AC0
:104E3000121B0EEE240CF582E43FF583E02410FCF7
:104E4000A3E03400FD74021218E91212FB7402127E
:104E500018A18A0A8B0B850A82850B83804F8E826C
:104E60008F83A3A3A3E0FAA3E0FB120AD98A0E8BD7
:104E70000F850E0A850F0BE50A450B602D750E0692
:104E8000750F00780E121B0EE50A2405FCE4350BA5
:104E9000FD74021218E91212FB74021218A18A0E94
:104EA0008B0F850E82850F83800302516B8E828F5C
:104EB00083A3A3A3A3A3E0A2E25004D2F08002C282
:104EC000F0A2F0E433F87900740C1218D7E048F03F
:104ED000A3E049F0EEFCEFFDAA18AB19121103E9AB
:104EE00070127A027B00900775E0F912134FE9798E
:104EF0000002516D75081590078FE0F8A3E0F9E8FE
:104F000049606F90078FE0F8A3E0F5838882A3A340
:104F1000E0F8A3E0F9E84960598E828F83A3E0FCB2
:104F200079018E828F83A3A3A3E0FAA3E0FB90070D
:104F30008FE0F8A3E0F5838882A3A3E0F8A3E0F56F
:104F40008388821218F9E5086028AC0879038E82FC
:104F50008F83A3A3A3E0FAA3E0FB90078FE0F8A35D
:104F6000E0F5838882A3A3E0F8A3E0F583888212AA
:104F700018F902516BAE0CAF0D90078FE0F8A3E06B
:104F8000F9E849604590078FE0F8A3E0F58388824F
:104F9000A3A3E0F8A3E0F9E849602F850C82850D12
:104FA00083A3E0FC79028E828F83A3A3A3E0FAA3FC
:104FB000E0FB90078FE0F8A3E0F5838882A3A3E0ED
:104FC000F8A3E0F58388821218F902516BAE0CAF9A
:104FD0000D7C007D00EE2404FAE43FFB8E828F837B
:104FE000A3A3A3E0F91210D3E9F508E508C3940AD6
:104FF0005017EE240AFCE43FFD7A0475F006E5083C
:10500000A42425F912143FE9F802516BAE0CAF0D40
:1050100090078AE06019901BE3E0F98E828F83A3EA
:10502000A3A3E0FAA3E0FB1205FFE9F802516B909D
:105030001BE2E0701679058E828F83A3A3A3E0FAAA
:10504000A3E0FB1205FFE9F802516B8E828F83A368
:10505000A3A3E0FAA3E0FB120AD98A0A8B0B850A04
:1050600008850B09E5084509700302516B8E828F94
:1050700083A3A3A3A3A3A3A3E0A2E0506D8508820A
:10508000850983A3A3A3A3E060608E828F83A3A37B
:10509000A3A3A3A3A3A3A3E0F50AA3E0F50B7409BC
:1050A000780A121869E50A5401F8E50B5400F9E88A
:1050B000A2E04036740E1218F1E5082405FAE43532
:1050C00009FB850882850983A3A3A3A3E0F9121035
:1050D000D3E9701679038E828F83A3A3A3E0FAA38A
:1050E000E0FB1205FFE9F802516BEE2405FCE43FFA
:1050F000FD850882850983A3A3A3A3E0F98E828F8F
:1051000083A3A3A3E0FAA3E0FB12116F90078FE043
:10511000F8A3E0F9E849605390078FE0F8A3E0F5C1
:10512000838882A3A3E0F8A3E0F9E849603D7C000E
:1051300079008E828F83A3A3A3E0FAA3E0FB9007FC
:105140008FE0F8A3E0F5838882A3A3E0F8A3E0F55D
:105150008388821218F98013AE0CAF0D8E828F8374
:10516000A3A3A3E0FAA3E0FB1210CD7901741412FB
:1051700018A17F080219CD74F51218FB74F21218E9
:105180008B8909EAFEEBFF8C0AAC18AD197A0E7513
:10519000F006E509A42420F9121445E970617C06A3
:1051A00079FFAA18AB19121373E97053740C121813
:1051B000D7E0F8A3E0F9E8F508E50A6005EE420853
:1051C0008004EEF45208E508F87900740C1218D740
:1051D000E0687003A3E0696022E508F87900740CC8
:1051E0001218D7E8F0A3E9F0AC18AD197A0E75F0F3
:1051F00006E509A42420F912143FE9790180027917
:1052000000740E1218A17F030219CD74F01218FB5E
:1052100074E612188B890B8A0C8B0DECFEEDFF7473
:105220000C1218F17A0E75F006E50BA42420F91281
:105230001445E9600302533B7C0679FF740C121895
:10524000E9121373E9600302533BAC18AD197A0CF1
:105250007470250BF9121445E96003025337750A7F
:1052600000AA18AB191210FDE50C450D702E7C0C30
:105270007900AA18AB19121373E9600302531D7C5D
:105280000C7D007900AA18AB191213138A088B0938
:10529000850882850983750A0102531DAC18AD1972
:1052A000AA0CAB0D1210F78A0E8B0F850E08850F16
:1052B00009E50845097030EE4F601BAC18AD197A4E
:1052C000007B001210F78A0E8B0FA80EA90F88081A
:1052D0008909E8497004790080638508828509831B
:1052E000E50CF0A3E50DF0850882850983A3A3E012
:1052F000F87900EE687002EF696022EEC0E0850880
:1053000082850983A3A3D0E0F0EE4F700D8508825B
:105310008509837400F0A37400F0750A01E50A6042
:1053200016AA18AB191210FDAC18AD197A0C7470CE
:10533000250BF912143FE9790180027900741A12E1
:1053400018A17F080219CD74F61218FB8A088B0980
:105350007E00EEC394045050EEF87900E875F00337
:10536000A4C8AAF075F000A42AFA75F003E9A42AEB
:10537000F9EC28F582ED39F583E065087004A3E0C7
:1053800065097021EEF87900E875F003A4C8AAF069
:1053900075F000A42AFA75F003E9A42AF9EC28FABA
:1053A000ED39FB80070E80AA7A007B007F0202198C
:1053B000CD74F71218FB7C00ECC394044003025434
:1053C00060ECF87900E875F003A4C8ADF075F00062
:1053D000A42DFD75F003E9A42DF9EA28F582EB3937
:1053E000F583E0F4FEA3E0F4FFECF87900E875F053
:1053F00003A4C8ADF075F000A42DFD75F003E9A479
:105400002DF9EA28F582EB39F583EEF0A3EFF0EC05
:10541000F87900E875F003A4C8ADF075F000A42D8C
:10542000FD75F003E9A42DF9EA28F582EB39F5833F
:10543000A3A3E0F4C0E0ECF87900E875F003A4C899
:10544000ADF075F000A42DFD75F003E9A42DF9EA87
:1054500028F582EB39F583A3A3D0E0F00C0253B812
:105460007F010219CD74F01218FB74F412188BEA44
:10547000FEEBFF8C088D09900829E0F8A3E0F9E81D
:1054800049702CEE4F6006E5084509700579010268
:105490005711EEFAEFFB12111BE9901BE6F0901B7F
:1054A000E6E0C3940A400812112DE9901BE6F09043
:1054B0001BE6E0C3940A400302570F900829E0F866
:1054C000A3E0F9E849600302555BEEFCEFFD7A0EBC
:1054D00075F006901BE6E0A42420F912143FE9F5CC
:1054E0000C7C0C7D0079FFAA18AB191213138A0EDD
:1054F0008B0F850E0A850F0BAC18AD197A0C901B1B
:10550000E6E02470F912143FE9F50D750E0E750FE3
:1055100000780E121B0EEEFCEFFD901BE6E0F87912
:1055200000E875F00EA4C8AAF075F000A42AFA7578
:10553000F00EE9A42AF9749128FA740739FB1212C3
:10554000FB74021218A18A0E8B0FA80EA90F9008E7
:1055500029E508F0A3E509F002570B900829E0F8C7
:10556000A3E0C82406F582C83400F583E0F8A3E080
:10557000F9E8496043900829E0F8A3E0C82406F55B
:1055800082C83400F583E0FCA3E0FD7A1B75F006C9
:10559000901BE6E0A42421F912143FE9F8900829B1
:1055A000E0F9A3E0C92406F582C93400F58374004C
:1055B000F0A37400F002570B900829E0F8A3E0C8AC
:1055C000240AF582C83400F583E0F8A3E0F9E8493D
:1055D0006043900829E0F8A3E0C8240AF582C834A3
:1055E00000F583E0FCA3E0FD7A1B75F006901BE656
:1055F000E0A42422F912143FE9F8900829E0F9A365
:10560000E0C9240AF582C93400F5837400F0A3745C
:1056100000F002570B900829E0F8A3E0C8240CF52D
:1056200082C83400F583E0F8A3E0F9E849604390CC
:105630000829E0F8A3E0C8240CF582C83400F583FB
:10564000E0FCA3E0FD7A1075F006901BE6E0A424D0
:1056500023F912143FE9F8900829E0F9A3E0C924DE
:105660000CF582C93400F5837400F0A37400F002D5
:10567000570B900829E0F8A3E0C82408F582C83445
:1056800000F583E0F8A3E0F9E849606F900829E0AD
:10569000F8A3E0C82408F582C83400F583E0FCA331
:1056A000E0FD7A1075F006901BE6E0A42424F912C0
:1056B000143FE9F50A900829E0F8A3E0C82408F5AA
:1056C00082C83400F583E02410FCA3E03400FD7AA6
:1056D0000475F006901BE6E0A42425F912143FE9B6
:1056E000F8900829E0F9A3E0C92408F582C934003C
:1056F000F5837400F0A37400F0801090081DE06042
:105700000312118D121169790180067900800279E6
:1057100001740C1218A17F080219CD74F71218FB3E
:1057200074F212188BE9FEAC18AD197A0E75F006FA
:10573000EEA42420F9121445E9700E740C1218D747
:10574000E0F8A3E0F9E8F980027900740E1218A1DC
:105750007F010219CD74F41218FB74F212188B89B0
:1057600009EAFEEBFFE509C3940A5004EE4F70040A
:1057700079028041AC18AD197A0E75F006E509A4DE
:105780002420F9121445E9F508E5087026750A0683
:10579000750B00780A121B0E74021218F1EEFAEF64
:1057A000FB1212FB74021218A18A0A8B0B850A8263
:1057B000850B83A908740E1218A17F040219CD74F9
:1057C000F41218FBEAFEEBFF750800E508C3940A23
:1057D0005044750A06750B00780A121B0EEEFCEF9A
:1057E000FDE508F87900E875F00EA4C8AAF075F098
:1057F00000A42AFA75F00EE9A42AF9749728FA741D
:105800000739FB12130D74021218A1E96004A908EC
:105810008006050880B5790A7F040219CD74F41258
:1058200018FBEAFEEBFF750800E508C3940A504434
:10583000750A06750B00780A121B0EEEFCEFFDE5EB
:1058400008F87900E875F00EA4C8AAF075F000A475
:105850002AFA75F00EE9A42AF9749128FA74073926
:10586000FB12130D74021218A1E96004A908800646
:10587000050880B5790A7F040219CD74F71218FB68
:1058800074F012188BEAFEEBFF750800E508C3946C
:105890000A5039AC18AD197A1075F006E508A42441
:1058A00023F9121445E970207C1079FFAA18AB196E
:1058B000121373E97012EEFCEFFDAA18AB19120572
:1058C000CFE97004A9088006050880C0790A741021
:1058D0001218A17F010219CD74F41218FB7508008B
:1058E000E508C3940A40030259B6E508F87900E8D0
:1058F00075F00EA4C8AAF075F000A42AFA75F00E8F
:10590000E9A42AF9749128FC740739FD7A0E75F020
:1059100006E508A42420F9121445E970030259B1E0
:105920007C067D0079FFE508FA7B00EA75F00EA49D
:10593000CAA8F075F000A428F875F00EEBA428FBB7
:1059400074912AFA74073BFB1213138A0A8B0BAE6D
:105950000AAF0B7C067D0079FFE508FA7B00EA754B
:10596000F00EA4CAA8F075F000A428F875F00EEBAC
:10597000A428FB74972AFA74073BFB1213138A0AB4
:105980008B0BAC0AAD0BE508F87900E875F00EA4B6
:10599000C8AAF075F000A42AFA75F00EE9A42AF955
:1059A000749D28F582740739F5837400F0A37400A0
:1059B000F005080258E090081DE0600312118D12F6
:1059C00011697F040219CD74F71218FB7E00EEC333
:1059D000940A50327C0679FFEEFA7B00EA75F00EED
:1059E000A4CAA8F075F000A428F875F00EEBA4285E
:1059F000FB74912AFA74073BFB121373E96004EEFF
:105A0000F980050E80C8790A7F010219CD74F7125A
:105A100018FB7E007F00EFC3940A502F7C0679FFAD
:105A2000EFFA7B00EA75F00EA4CAA8F075F000A4A6
:105A300028F875F00EEBA428FB74912AFA74073B42
:105A4000FB121373E970010E0F80CBEEF97F010298
:105A500019CD74F71218FB7E007F00EFC3940A5033
:105A60000DEE700AEFF912113FE9FE0F80EDEEF92D
:105A70007F010219CD74F01218FB74CB12188B89B8
:105A800009901BE6E06509701D7A017B009007759F
:105A9000E0F9121355E97A027B00900775E0F912DC
:105AA0001355E9121199901BE7E0650970137A0408
:105AB0007B00900775E0F9121355E9901BE7740A13
:105AC000F074271218F17A0E75F006E509A4242067
:105AD000F9121445E96003025BC87C0679FF74275C
:105AE0001218E9121373E96003025BC87C0E7D0093
:105AF00079FF74271218E91213138A0A8B0B850A8F
:105B00000C850B0D7C1B7D0079FF740C1218E912BB
:105B100013138A0E8B0F850E0A850F0B7C0C7D00EC
