:020000040000FA
:10000000020645C2AFF50841F9FFFFC2AFF508612E
:100010000BFFFFC2AFF508611DFFFFC2AFF508611E
:100020002FFFFFC2AFF5086141FFFFC2AFF50861C6
:1000300053FFFFC2AFF5086165FFFFC2AFF508616E
:1000400077FFFFC2AFF5086189FFFFC2AFF5086116
:100050009BFFFFC2AFF50861ADFFFFC2AFF50861BE
:10006000BFFFFFC2AFF50861D1FFFFC2AFF5086166
:10007000E3FFFFC2AFF50861F5FFFFC2AFF50881EE
:1000800007FFFFC2AFF5088119FFFFC2AFF5088176
:100090002BFFFFFF758701002274F312052FE9FE85
:1000A000750A00750B08780A1206347C807D017A87
:1000B000007B0012044174021205F08E0C90018640
:1000C000E0F50AA3E0F50B7409780A120654E50A74
:1000D000FF9001867409780A120621E0C3F50EA389
:1000E000E0950BF50F7402780E120621850E0A8535
:1000F0000F0BEE2FFF7401650C7004744D2FFF532E
:10010000B4F375BC0075BC008042748028F582741D
:100110000139F583E0F5BDE82401FAE439FBEAF89A
:10012000EBF9C3940840290E74086E70027E557571
:100130000E00750F08780E1206347C807D017A005F
:100140007B00EEF912044174021205F07800790088
:10015000E50C6E700AE84970067A047B0080BFEFF8
:100160006E70A7E50A687003E50B69709DE5BDF93F
:10017000E5BCFAE9FB7F0602059574FC12060B75D7
:100180000A04750B00780A120634740212067A7A91
:10019000007B00790812044174021205F085218267
:1001A000852283E0F47003A3E0F4602D852182852D
:1001B0002283E0F8A3E0F9E849601E740212067099
:1001C000E0687003A3E0697010750901024030C255
:1001D000AF75C9AB75C95B80FE780A12063474022C
:1001E00012067A7A007B007901120441740212052A
:1001F000F0852182852283E0F47003A3E0F470038C
:100200000202E9852182852283E0F8A3E0F9E8492A
:1002100070030202E97402120670E0F8A3E0F985A7
:100220002182852283E0687003A3E069701075095C
:1002300000020830C2AF75C9AB75C95B80FE74FFA0
:1002400068700374FF6960030202E953BEFBE59D19
:10025000A2E650FAE5C654804449F5C6E59E547FAF
:10026000644970F853C67FE59EA2E740FA53C68002
:10027000E59E547F70FA43BE049062707408F07477
:1002800009F5D57480F5D479011200998A0A8B0B8F
:10029000A80AA90B852182852283E0687003A3E068
:1002A000697046852182852283E0F8A3E0F9740213
:1002B000120670E8F0A3E9F085218285228374FF9D
:1002C000F0A3F0750A01750B00780A120634740267
:1002D00012067A7A007B021204C774021205F0C279
:1002E000AF75C9AB75C95B80FE43BE03120094C2F3
:1002F000AF75C9AB75C95B80FEE5096007E508D23B
:10030000AF024033E508D2AF020833E5096007E5E4
:1003100008D2AF02403BE508D2AF02083BE50960D6
:1003200007E508D2AF024043E508D2AF020843E533
:10033000096007E508D2AF02404BE508D2AF0208DA
:100340004BE5096007E508D2AF024053E508D2AF9C
:10035000020853E5096007E508D2AF02405BE508F3
:10036000D2AF02085BE5096007E508D2AF0240633F
:10037000E508D2AF020863E5096007E508D2AF02DD
:10038000406BE508D2AF02086BE5096007E508D2CB
:10039000AF024073E508D2AF020873E5096007E5D4
:1003A00008D2AF02407BE508D2AF02087BE50960C6
:1003B00007E508D2AF024083E508D2AF020883E523
:1003C000096007E508D2AF02408BE508D2AF02080A
:1003D0008BE5096007E508D2AF024093E508D2AF8C
:1003E000020893E5096007E508D2AF02409BE508E3
:1003F000D2AF02089BE5096007E508D2AF0240A32F
:10040000E508D2AF0208A3E5096007E508D2AF020C
:1004100040ABE508D2AF0208ABE5096007E508D2BA
:10042000AF0240B3E508D2AF0208B3E5096007E5C3
:1004300008D2AF0240BBE508D2AF0208BB000204FD
:100440003D74F512052F890A740F550AF50C750DC8
:1004500000740B780C120621EA2400F8EB3480F9C2
:10046000E82400E9350DF985C70CA2AFE433F50B9C
:10047000C2AFE50AC4540FFAE5C754F84AF5C77489
:100480000B120670E0FEA3E0FFEE4F602CEEFAEFD9
:10049000FB88828983E08C828D83F088828983A3A4
:1004A000A882A9838C828D83A3AC82AD83EA24FFCA
:1004B0001AEB34FFFBEA4B70D8850CC7E50BA2E0C2
:1004C00092AF7F0402059574F712052FECFEED90B4
:1004D0000980F0EEA3F0A37462F0A37473F0A3E0BC
:1004E000541FF07409120670E0F50AA3E0F50BE55D
:1004F0000A333354FC900985F07406780A120654C6
:10050000E50A900984F09009867412F0A37442F011
:1005100075D11E75D601EA906271F0EBA3F090627E
:1005200070E0D2E1F0E0A2E740FB7F0202059525F2
:1005300021C582C0E0E52234FFC583C0E0E521C3C8
:10054000958224F910AF0885832285822180088551
:100550008322858221D2AFCEF0A3E520F0A3780AD2
:10056000E608F0A3DEFAEFF0A3E58124FBF8E60845
:10057000F0A3E608F0A30808E608F0A3E608F0A355
:1005800015811581D0E0FED0E0F815811581E8C015
:10059000E0EEC0E022852283852182E0A3FEE0A375
:1005A000F520780AE0A3F608DFFAE0A3FFE0A3C095
:1005B000E0E0A3C0E0E0A3C0E0E0A3C0E010AF082B
:1005C0008582218583228008858221858322D2AF7E
:1005D000D083D082222521F58210AF08F521400C6E
:1005E00015228008F52140021522D2AF85228322F0
:1005F00000C0D0252110AF08F521500C052280083D
:10060000F52150020522D2AFD0D022252110AF080B
:10061000F521400C15228008F52140021522D2AFA9
:1006200022700422600D18C6C333C608C633C6D56F
:10063000E0F4182274028000C0E0F4041205D5D062
:10064000E01206632275D00075813F752180752206
:1006500001020682600C08C6C313C618C613C6D5AD
:10066000E0F422CAC0E0E6F0A308DAFAD0E0FA2209
:100670002521F582E43522F583222521FCE435226B
:10068000FD2212017A12068800000080FBFFFFFFA6
:10069000FFFFFFFFFFFFFFFFFFFFFFFFFFFFFFFF6A
:1006A000FFFFFFFFFFFFFFFFFFFFFFFFFFFFFFFF5A
:1006B000FFFFFFFFFFFFFFFFFFFFFFFFFFFFFFFF4A
:1006C000FFFFFFFFFFFFFFFFFFFFFFFFFFFFFFFF3A
:1006D000FFFFFFFFFFFFFFFFFFFFFFFFFFFFFFFF2A
:1006E000FFFFFFFFFFFFFFFFFFFFFFFFFFFFFFFF1A
:1006F000FFFFFFFFFFFFFFFFFFFFFFFFFFFFFFFF0A
:10070000FFFFFFFFFFFFFFFFFFFFFFFFFFFFFFFFF9
:10071000FFFFFFFFFFFFFFFFFFFFFFFFFFFFFFFFE9
:10072000FFFFFFFFFFFFFFFFFFFFFFFFFFFFFFFFD9
:10073000FFFFFFFFFFFFFFFFFFFFFFFFFFFFFFFFC9
:10074000FFFFFFFFFFFFFFFFFFFFFFFFFFFFFFFFB9
:10075000FFFFFFFFFFFFFFFFFFFFFFFFFFFFFFFFA9
:10076000FFFFFFFFFFFFFFFFFFFFFFFFFFFFFFFF99
:10077000FFFFFFFFFFFFFFFFFFFFFFFFFFFFFFFF89
:10078000FFFFFFFFFFFFFFFFFFFFFFFFFFFFFFFF79
:10079000FFFFFFFFFFFFFFFFFFFFFFFFFFFFFFFF69
:1007A000FFFFFFFFFFFFFFFFFFFFFFFFFFFFFFFF59
:1007B000FFFFFFFFFFFFFFFFFFFFFFFFFFFFFFFF49
:1007C000FFFFFFFFFFFFFFFFFFFFFFFFFFFFFFFF39
:1007D000FFFFFFFFFFFFFFFFFFFFFFFFFFFFFFFF29
:1007E000FFFFFFFFFFFFFFFFFFFFFFFFFFFFFFFF19
:1007F000FFFFFFFFFFFFFFFFFFFFFFFFFFFFFFFF09
:0400000500000645AC
:00000001FF
